{
  "_format": "hh-sol-artifact-1",
  "contractName": "UnityLedger",
  "sourceName": "contracts/UnityLedger.sol",
  "abi": [
    {
      "inputs": [],
      "stateMutability": "nonpayable",
      "type": "constructor"
    },
    {
      "anonymous": false,
      "inputs": [
        {
          "indexed": true,
          "internalType": "uint256",
          "name": "poolId",
          "type": "uint256"
        },
        {
          "indexed": true,
          "internalType": "address",
          "name": "member",
          "type": "address"
        },
        {
          "indexed": false,
          "internalType": "uint256",
          "name": "amount",
          "type": "uint256"
        },
        {
          "indexed": false,
          "internalType": "uint256",
          "name": "cycle",
          "type": "uint256"
        }
      ],
      "name": "ContributionReceived",
      "type": "event"
    },
    {
      "anonymous": false,
      "inputs": [
        {
          "indexed": true,
          "internalType": "uint256",
          "name": "poolId",
          "type": "uint256"
        },
        {
          "indexed": true,
          "internalType": "address",
          "name": "member",
          "type": "address"
        },
        {
          "indexed": false,
          "internalType": "uint256",
          "name": "amount",
          "type": "uint256"
        }
      ],
      "name": "EmergencyWithdrawal",
      "type": "event"
    },
    {
      "anonymous": false,
      "inputs": [
        {
          "indexed": true,
          "internalType": "uint256",
          "name": "poolId",
          "type": "uint256"
        },
        {
          "indexed": true,
          "internalType": "address",
          "name": "member",
          "type": "address"
        },
        {
          "indexed": false,
          "internalType": "uint256",
          "name": "timestamp",
          "type": "uint256"
        }
      ],
      "name": "JoinedPool",
      "type": "event"
    },
    {
      "anonymous": false,
      "inputs": [
        {
          "indexed": true,
          "internalType": "address",
          "name": "member",
          "type": "address"
        },
        {
          "indexed": false,
          "internalType": "uint256",
          "name": "missedPayments",
          "type": "uint256"
        }
      ],
      "name": "MemberBlacklisted",
      "type": "event"
    },
    {
      "anonymous": false,
      "inputs": [
        {
          "indexed": true,
          "internalType": "uint256",
          "name": "poolId",
          "type": "uint256"
        },
        {
          "indexed": false,
          "internalType": "uint256",
          "name": "cycle",
          "type": "uint256"
        },
        {
          "indexed": false,
          "internalType": "uint256",
          "name": "timestamp",
          "type": "uint256"
        }
      ],
      "name": "NewCycleStarted",
      "type": "event"
    },
    {
      "anonymous": false,
      "inputs": [
        {
          "indexed": true,
          "internalType": "uint256",
          "name": "poolId",
          "type": "uint256"
        },
        {
          "indexed": true,
          "internalType": "address",
          "name": "recipient",
          "type": "address"
        },
        {
          "indexed": false,
          "internalType": "uint256",
          "name": "amount",
          "type": "uint256"
        },
        {
          "indexed": false,
          "internalType": "uint256",
          "name": "cycle",
          "type": "uint256"
        }
      ],
      "name": "PayoutSent",
      "type": "event"
    },
    {
      "anonymous": false,
      "inputs": [
        {
          "indexed": true,
          "internalType": "uint256",
          "name": "poolId",
          "type": "uint256"
        },
        {
          "indexed": true,
          "internalType": "address",
          "name": "creator",
          "type": "address"
        }
      ],
      "name": "PoolClosed",
      "type": "event"
    },
    {
      "anonymous": false,
      "inputs": [
        {
          "indexed": true,
          "internalType": "uint256",
          "name": "poolId",
          "type": "uint256"
        },
        {
          "indexed": false,
          "internalType": "uint256",
          "name": "timestamp",
          "type": "uint256"
        }
      ],
      "name": "PoolCompleted",
      "type": "event"
    },
    {
      "anonymous": false,
      "inputs": [
        {
          "indexed": true,
          "internalType": "uint256",
          "name": "poolId",
          "type": "uint256"
        },
        {
          "indexed": true,
          "internalType": "address",
          "name": "creator",
          "type": "address"
        },
        {
          "indexed": false,
          "internalType": "uint256",
          "name": "contributionAmount",
          "type": "uint256"
        },
        {
          "indexed": false,
          "internalType": "uint256",
          "name": "maxMembers",
          "type": "uint256"
        }
      ],
      "name": "PoolCreated",
      "type": "event"
    },
    {
      "anonymous": false,
      "inputs": [
        {
          "indexed": true,
          "internalType": "uint256",
          "name": "poolId",
          "type": "uint256"
        },
        {
          "indexed": true,
          "internalType": "address",
          "name": "member",
          "type": "address"
        },
        {
          "indexed": false,
          "internalType": "uint256",
          "name": "amount",
          "type": "uint256"
        }
      ],
      "name": "YieldClaimed",
      "type": "event"
    },
    {
      "inputs": [],
      "name": "MAX_APY",
      "outputs": [
        {
          "internalType": "uint256",
          "name": "",
          "type": "uint256"
        }
      ],
      "stateMutability": "view",
      "type": "function"
    },
    {
      "inputs": [],
      "name": "MAX_MEMBERS",
      "outputs": [
        {
          "internalType": "uint256",
          "name": "",
          "type": "uint256"
        }
      ],
      "stateMutability": "view",
      "type": "function"
    },
    {
      "inputs": [],
      "name": "MIN_CONTRIBUTION",
      "outputs": [
        {
          "internalType": "uint256",
          "name": "",
          "type": "uint256"
        }
      ],
      "stateMutability": "view",
      "type": "function"
    },
    {
      "inputs": [
        {
          "internalType": "address",
          "name": "user",
          "type": "address"
        }
      ],
      "name": "blacklistAddress",
      "outputs": [],
      "stateMutability": "nonpayable",
      "type": "function"
    },
    {
      "inputs": [
        {
          "internalType": "uint256",
          "name": "poolId",
          "type": "uint256"
        },
        {
          "internalType": "address",
          "name": "user",
          "type": "address"
        }
      ],
      "name": "calculateYield",
      "outputs": [
        {
          "internalType": "uint256",
          "name": "",
          "type": "uint256"
        }
      ],
      "stateMutability": "view",
      "type": "function"
    },
    {
      "inputs": [
        {
          "internalType": "uint256",
          "name": "poolId",
          "type": "uint256"
        },
        {
          "internalType": "address",
          "name": "user",
          "type": "address"
        }
      ],
      "name": "canContribute",
      "outputs": [
        {
          "internalType": "bool",
          "name": "",
          "type": "bool"
        }
      ],
      "stateMutability": "view",
      "type": "function"
    },
    {
      "inputs": [
        {
          "internalType": "uint256",
          "name": "poolId",
          "type": "uint256"
        },
        {
          "internalType": "address",
          "name": "user",
          "type": "address"
        }
      ],
      "name": "canJoinPool",
      "outputs": [
        {
          "internalType": "bool",
          "name": "",
          "type": "bool"
        }
      ],
      "stateMutability": "view",
      "type": "function"
    },
    {
      "inputs": [
        {
          "internalType": "uint256",
          "name": "poolId",
          "type": "uint256"
        }
      ],
      "name": "claimYield",
      "outputs": [],
      "stateMutability": "nonpayable",
      "type": "function"
    },
    {
      "inputs": [
        {
          "internalType": "uint256",
          "name": "poolId",
          "type": "uint256"
        }
      ],
      "name": "closePool",
      "outputs": [],
      "stateMutability": "nonpayable",
      "type": "function"
    },
    {
      "inputs": [
        {
          "internalType": "uint256",
          "name": "poolId",
          "type": "uint256"
        }
      ],
      "name": "contribute",
      "outputs": [],
      "stateMutability": "payable",
      "type": "function"
    },
    {
      "inputs": [
        {
          "internalType": "uint256",
          "name": "contributionAmount",
          "type": "uint256"
        },
        {
          "internalType": "uint256",
          "name": "cycleDuration",
          "type": "uint256"
        },
        {
          "internalType": "uint256",
          "name": "maxMembers",
          "type": "uint256"
        },
        {
          "internalType": "address[]",
          "name": "payoutOrder",
          "type": "address[]"
        },
        {
          "internalType": "string",
          "name": "poolType",
          "type": "string"
        },
        {
          "internalType": "uint256",
          "name": "fee",
          "type": "uint256"
        }
      ],
      "name": "createPool",
      "outputs": [
        {
          "internalType": "uint256",
          "name": "",
          "type": "uint256"
        }
      ],
      "stateMutability": "nonpayable",
      "type": "function"
    },
    {
      "inputs": [
        {
          "internalType": "uint256",
          "name": "poolId",
          "type": "uint256"
        }
      ],
      "name": "emergencyWithdraw",
      "outputs": [],
      "stateMutability": "nonpayable",
      "type": "function"
    },
    {
      "inputs": [
        {
          "internalType": "uint256",
          "name": "poolId",
          "type": "uint256"
        }
      ],
      "name": "getPayoutOrder",
      "outputs": [
        {
          "internalType": "address[]",
          "name": "",
          "type": "address[]"
        }
      ],
      "stateMutability": "view",
      "type": "function"
    },
    {
      "inputs": [
        {
          "internalType": "uint256",
          "name": "poolId",
          "type": "uint256"
        }
      ],
      "name": "getPoolDetails",
      "outputs": [
        {
          "components": [
            {
              "internalType": "uint256",
              "name": "id",
              "type": "uint256"
            },
            {
              "internalType": "address",
              "name": "creator",
              "type": "address"
            },
            {
              "internalType": "uint256",
              "name": "contributionAmount",
              "type": "uint256"
            },
            {
              "internalType": "uint256",
              "name": "cycleDuration",
              "type": "uint256"
            },
            {
              "internalType": "uint256",
              "name": "maxMembers",
              "type": "uint256"
            },
            {
              "internalType": "uint256",
              "name": "totalMembers",
              "type": "uint256"
            },
            {
              "internalType": "uint256",
              "name": "currentCycle",
              "type": "uint256"
            },
            {
              "internalType": "uint256",
              "name": "lastPayoutTime",
              "type": "uint256"
            },
            {
              "internalType": "uint256",
              "name": "createdAt",
              "type": "uint256"
            },
            {
              "internalType": "bool",
              "name": "isActive",
              "type": "bool"
            },
            {
              "internalType": "bool",
              "name": "isCompleted",
              "type": "bool"
            },
            {
              "internalType": "string",
              "name": "poolType",
              "type": "string"
            },
            {
              "internalType": "uint256",
              "name": "fee",
              "type": "uint256"
            },
            {
              "internalType": "uint256",
              "name": "totalContributions",
              "type": "uint256"
            },
            {
              "internalType": "uint256",
              "name": "totalPayouts",
              "type": "uint256"
            }
          ],
          "internalType": "struct UnityLedger.PoolInfo",
          "name": "",
          "type": "tuple"
        }
      ],
      "stateMutability": "view",
      "type": "function"
    },
    {
      "inputs": [
        {
          "internalType": "uint256",
          "name": "poolId",
          "type": "uint256"
        }
      ],
      "name": "getPoolMembers",
      "outputs": [
        {
          "components": [
            {
              "internalType": "address",
              "name": "wallet",
              "type": "address"
            },
            {
              "internalType": "uint256",
              "name": "joinedAt",
              "type": "uint256"
            },
            {
              "internalType": "bool",
              "name": "hasReceivedPayout",
              "type": "bool"
            },
            {
              "internalType": "uint256",
              "name": "totalContributed",
              "type": "uint256"
            },
            {
              "internalType": "uint256",
              "name": "missedContributions",
              "type": "uint256"
            }
          ],
          "internalType": "struct UnityLedger.Member[]",
          "name": "",
          "type": "tuple[]"
        }
      ],
      "stateMutability": "view",
      "type": "function"
    },
    {
      "inputs": [],
      "name": "getPoolStats",
      "outputs": [
        {
          "internalType": "uint256",
          "name": "totalPools",
          "type": "uint256"
        },
        {
          "internalType": "uint256",
          "name": "activePools",
          "type": "uint256"
        },
        {
          "internalType": "uint256",
          "name": "totalMembers",
          "type": "uint256"
        },
        {
          "internalType": "uint256",
          "name": "totalValue",
          "type": "uint256"
        }
      ],
      "stateMutability": "view",
      "type": "function"
    },
    {
      "inputs": [
        {
          "internalType": "address",
          "name": "user",
          "type": "address"
        }
      ],
      "name": "getUserPools",
      "outputs": [
        {
          "internalType": "uint256[]",
          "name": "",
          "type": "uint256[]"
        }
      ],
      "stateMutability": "view",
      "type": "function"
    },
    {
      "inputs": [
        {
          "internalType": "uint256",
          "name": "poolId",
          "type": "uint256"
        },
        {
          "internalType": "address",
          "name": "user",
          "type": "address"
        }
      ],
      "name": "hasContributedThisCycle",
      "outputs": [
        {
          "internalType": "bool",
          "name": "",
          "type": "bool"
        }
      ],
      "stateMutability": "view",
      "type": "function"
    },
    {
      "inputs": [
        {
          "internalType": "address",
          "name": "",
          "type": "address"
        }
      ],
      "name": "isBlacklisted",
      "outputs": [
        {
          "internalType": "bool",
          "name": "",
          "type": "bool"
        }
      ],
      "stateMutability": "view",
      "type": "function"
    },
    {
      "inputs": [
        {
          "internalType": "uint256",
          "name": "poolId",
          "type": "uint256"
        }
      ],
      "name": "joinPool",
      "outputs": [],
      "stateMutability": "nonpayable",
      "type": "function"
    },
    {
      "inputs": [
        {
          "internalType": "uint256",
          "name": "",
          "type": "uint256"
        },
        {
          "internalType": "address",
          "name": "",
          "type": "address"
        }
      ],
      "name": "lastClaimTime",
      "outputs": [
        {
          "internalType": "uint256",
          "name": "",
          "type": "uint256"
        }
      ],
      "stateMutability": "view",
      "type": "function"
    },
    {
      "inputs": [
        {
          "internalType": "address",
          "name": "",
          "type": "address"
        }
      ],
      "name": "missedPayments",
      "outputs": [
        {
          "internalType": "uint256",
          "name": "",
          "type": "uint256"
        }
      ],
      "stateMutability": "view",
      "type": "function"
    },
    {
      "inputs": [],
      "name": "nextPoolId",
      "outputs": [
        {
          "internalType": "uint256",
          "name": "",
          "type": "uint256"
        }
      ],
      "stateMutability": "view",
      "type": "function"
    },
    {
      "inputs": [],
      "name": "owner",
      "outputs": [
        {
          "internalType": "address",
          "name": "",
          "type": "address"
        }
      ],
      "stateMutability": "view",
      "type": "function"
    },
    {
      "inputs": [
        {
          "internalType": "uint256",
          "name": "",
          "type": "uint256"
        }
      ],
      "name": "payoutHistory",
      "outputs": [
        {
          "internalType": "address",
          "name": "",
          "type": "address"
        }
      ],
      "stateMutability": "view",
      "type": "function"
    },
    {
      "inputs": [],
      "name": "platformFee",
      "outputs": [
        {
          "internalType": "uint256",
          "name": "",
          "type": "uint256"
        }
      ],
      "stateMutability": "view",
      "type": "function"
    },
    {
      "inputs": [
        {
          "internalType": "uint256",
          "name": "",
          "type": "uint256"
        },
        {
          "internalType": "uint256",
          "name": "",
          "type": "uint256"
        }
      ],
      "name": "poolMembers",
      "outputs": [
        {
          "internalType": "address",
          "name": "wallet",
          "type": "address"
        },
        {
          "internalType": "uint256",
          "name": "joinedAt",
          "type": "uint256"
        },
        {
          "internalType": "bool",
          "name": "hasReceivedPayout",
          "type": "bool"
        },
        {
          "internalType": "uint256",
          "name": "totalContributed",
          "type": "uint256"
        },
        {
          "internalType": "uint256",
          "name": "missedContributions",
          "type": "uint256"
        }
      ],
      "stateMutability": "view",
      "type": "function"
    },
    {
      "inputs": [
        {
          "internalType": "address",
          "name": "user",
          "type": "address"
        }
      ],
      "name": "removeFromBlacklist",
      "outputs": [],
      "stateMutability": "nonpayable",
      "type": "function"
    },
    {
      "inputs": [
        {
          "internalType": "uint256",
          "name": "_fee",
          "type": "uint256"
        }
      ],
      "name": "setPlatformFee",
      "outputs": [],
      "stateMutability": "nonpayable",
      "type": "function"
    },
    {
      "inputs": [
        {
          "internalType": "address",
          "name": "tokenAddress",
          "type": "address"
        }
      ],
      "name": "setUltToken",
      "outputs": [],
      "stateMutability": "nonpayable",
      "type": "function"
    },
    {
      "inputs": [
        {
          "internalType": "uint256",
          "name": "poolId",
          "type": "uint256"
        }
      ],
      "name": "startNewCycle",
      "outputs": [],
      "stateMutability": "nonpayable",
      "type": "function"
    },
    {
      "inputs": [],
      "name": "ultToken",
      "outputs": [
        {
          "internalType": "contract IERC20Mintable",
          "name": "",
          "type": "address"
        }
      ],
      "stateMutability": "view",
      "type": "function"
    },
    {
      "inputs": [
        {
          "internalType": "address",
          "name": "",
          "type": "address"
        }
      ],
      "name": "userPoolCount",
      "outputs": [
        {
          "internalType": "uint256",
          "name": "",
          "type": "uint256"
        }
      ],
      "stateMutability": "view",
      "type": "function"
    },
    {
      "inputs": [
        {
          "internalType": "address",
          "name": "",
          "type": "address"
        },
        {
          "internalType": "uint256",
          "name": "",
          "type": "uint256"
        }
      ],
      "name": "userPools",
      "outputs": [
        {
          "internalType": "uint256",
          "name": "",
          "type": "uint256"
        }
      ],
      "stateMutability": "view",
      "type": "function"
    },
    {
      "stateMutability": "payable",
      "type": "receive"
    }
  ],
  "bytecode": "0x6080604052606460025534801561001557600080fd5b5033600160006101000a81548173ffffffffffffffffffffffffffffffffffffffff021916908373ffffffffffffffffffffffffffffffffffffffff1602179055506159f880620000676000396000f3fe6080604052600436106101fd5760003560e01c80637c2841cd1161010d578063bbb85188116100a0578063df7d296c1161006f578063df7d296c146107ba578063ea0e35b1146107f7578063f2b9b03614610822578063f3290d751461085f578063fe575a871461088857610204565b8063bbb85188146106f6578063c1cbbca714610724578063d13ca2ee14610740578063d5364caa1461077d57610204565b80639816af58116100dc5780639816af5814610602578063b1219e731461063f578063b8764c391461067c578063bbb4ef41146106b957610204565b80637c2841cd1461053457806385a7eced146105715780638da5cb5b1461059a5780639022c31f146105c557610204565b80633d92f4e2116101905780635312ea8e1161015f5780635312ea8e1461043b578063537df3b614610464578063566dd7ac1461048d578063659106f5146104ca5780637be2ecea1461050b57610204565b80633d92f4e21461037f57806340650c91146103aa57806340bd2e23146103d55780634dcdb237146103fe57610204565b8063205ff2e3116101cc578063205ff2e3146102d757806326232a2e1461030257806334e7a19f1461032d57806337de615f1461035657610204565b80630bd2718e146102095780631064aa551461024657806312e8e2c31461028357806318e56131146102ac57610204565b3661020457005b600080fd5b34801561021557600080fd5b50610230600480360381019061022b9190613fcc565b6108c5565b60405161023d91906140a0565b60405180910390f35b34801561025257600080fd5b5061026d600480360381019061026891906140bb565b610e46565b60405161027a91906140a0565b60405180910390f35b34801561028f57600080fd5b506102aa60048036038101906102a591906140fb565b610e77565b005b3480156102b857600080fd5b506102c1610f56565b6040516102ce91906140a0565b60405180910390f35b3480156102e357600080fd5b506102ec610f5c565b6040516102f99190614187565b60405180910390f35b34801561030e57600080fd5b50610317610f82565b60405161032491906140a0565b60405180910390f35b34801561033957600080fd5b50610354600480360381019061034f91906140fb565b610f88565b005b34801561036257600080fd5b5061037d600480360381019061037891906140fb565b6114fc565b005b34801561038b57600080fd5b506103946116e8565b6040516103a191906140a0565b60405180910390f35b3480156103b657600080fd5b506103bf6116ed565b6040516103cc91906140a0565b60405180910390f35b3480156103e157600080fd5b506103fc60048036038101906103f791906140fb565b6116f8565b005b34801561040a57600080fd5b50610425600480360381019061042091906140fb565b611af9565b60405161043291906141b1565b60405180910390f35b34801561044757600080fd5b50610462600480360381019061045d91906140fb565b611b2c565b005b34801561047057600080fd5b5061048b600480360381019061048691906141cc565b611d3b565b005b34801561049957600080fd5b506104b460048036038101906104af91906141f9565b611e26565b6040516104c19190614254565b60405180910390f35b3480156104d657600080fd5b506104f160048036038101906104ec919061426f565b611fcd565b6040516105029594939291906142af565b60405180910390f35b34801561051757600080fd5b50610532600480360381019061052d91906140fb565b61204d565b005b34801561054057600080fd5b5061055b600480360381019061055691906141f9565b612493565b6040516105689190614254565b60405180910390f35b34801561057d57600080fd5b50610598600480360381019061059391906141cc565b61256b565b005b3480156105a657600080fd5b506105af6126ae565b6040516105bc91906141b1565b60405180910390f35b3480156105d157600080fd5b506105ec60048036038101906105e791906141f9565b6126d4565b6040516105f991906140a0565b60405180910390f35b34801561060e57600080fd5b50610629600480360381019061062491906141cc565b6126f9565b60405161063691906143c0565b60405180910390f35b34801561064b57600080fd5b50610666600480360381019061066191906140fb565b612790565b6040516106739190614517565b60405180910390f35b34801561068857600080fd5b506106a3600480360381019061069e91906140fb565b6128d7565b6040516106b091906146fb565b60405180910390f35b3480156106c557600080fd5b506106e060048036038101906106db91906141f9565b612ac0565b6040516106ed91906140a0565b60405180910390f35b34801561070257600080fd5b5061070b612c33565b60405161071b949392919061471d565b60405180910390f35b61073e600480360381019061073991906140fb565b612cdf565b005b34801561074c57600080fd5b50610767600480360381019061076291906141f9565b613343565b6040516107749190614254565b60405180910390f35b34801561078957600080fd5b506107a4600480360381019061079f91906141cc565b6134f2565b6040516107b191906140a0565b60405180910390f35b3480156107c657600080fd5b506107e160048036038101906107dc91906140fb565b61350a565b6040516107ee9190614811565b60405180910390f35b34801561080357600080fd5b5061080c6135f4565b60405161081991906140a0565b60405180910390f35b34801561082e57600080fd5b50610849600480360381019061084491906141cc565b6135f9565b60405161085691906140a0565b60405180910390f35b34801561086b57600080fd5b50610886600480360381019061088191906141cc565b613611565b005b34801561089457600080fd5b506108af60048036038101906108aa91906141cc565b613789565b6040516108bc9190614254565b60405180910390f35b6000600660003373ffffffffffffffffffffffffffffffffffffffff1673ffffffffffffffffffffffffffffffffffffffff16815260200190815260200160002060009054906101000a900460ff1615610954576040517f08c379a000000000000000000000000000000000000000000000000000000000815260040161094b90614890565b60405180910390fd5b66038d7ea4c6800087101561099e576040517f08c379a0000000000000000000000000000000000000000000000000000000008152600401610995906148fc565b60405180910390fd5b620151808610156109e4576040517f08c379a00000000000000000000000000000000000000000000000000000000081526004016109db90614968565b60405180910390fd5b6301e13380861115610a2b576040517f08c379a0000000000000000000000000000000000000000000000000000000008152600401610a22906149d4565b60405180910390fd5b60028510158015610a3d575060328511155b610a7c576040517f08c379a0000000000000000000000000000000000000000000000000000000008152600401610a7390614a40565b60405180910390fd5b84845114610abf576040517f08c379a0000000000000000000000000000000000000000000000000000000008152600401610ab690614aac565b60405180910390fd5b6032821115610b03576040517f08c379a0000000000000000000000000000000000000000000000000000000008152600401610afa90614b18565b60405180910390fd5b6000835111610b47576040517f08c379a0000000000000000000000000000000000000000000000000000000008152600401610b3e90614b84565b60405180910390fd5b60005b8451811015610be957600073ffffffffffffffffffffffffffffffffffffffff16858281518110610b7e57610b7d614ba4565b5b602002602001015173ffffffffffffffffffffffffffffffffffffffff1603610bdc576040517f08c379a0000000000000000000000000000000000000000000000000000000008152600401610bd390614c1f565b60405180910390fd5b8080600101915050610b4a565b506000600360008054815260200190815260200160002090506000548160000181905550338160010160006101000a81548173ffffffffffffffffffffffffffffffffffffffff021916908373ffffffffffffffffffffffffffffffffffffffff160217905550878160020181905550868160030181905550858160040181905550600081600501819055506000816006018190555060018160090160006101000a81548160ff02191690831515021790555060008160090160016101000a81548160ff0219169083151502179055504281600701819055504281600801819055508481600a019080519060200190610ce3929190613bdf565b508381600b019081610cf59190614e41565b508281600c0181905550600081600d0181905550600081600e0181905550600960003373ffffffffffffffffffffffffffffffffffffffff1673ffffffffffffffffffffffffffffffffffffffff1681526020019081526020016000206000549080600181540180825580915050600190039060005260206000200160009091909190915055600a60003373ffffffffffffffffffffffffffffffffffffffff1673ffffffffffffffffffffffffffffffffffffffff1681526020019081526020016000206000815480929190610dcb90614f42565b91905055503373ffffffffffffffffffffffffffffffffffffffff166000547f154511729012ef776b8a51ae96d7429fa768546e62bec65af546cb3a5ff8f8ac8a89604051610e1b929190614f8a565b60405180910390a3600080815480929190610e3590614f42565b919050559150509695505050505050565b60096020528160005260406000208181548110610e6257600080fd5b90600052602060002001600091509150505481565b600160009054906101000a900473ffffffffffffffffffffffffffffffffffffffff1673ffffffffffffffffffffffffffffffffffffffff163373ffffffffffffffffffffffffffffffffffffffff1614610f07576040517f08c379a0000000000000000000000000000000000000000000000000000000008152600401610efe90614fff565b60405180910390fd5b6101f4811115610f4c576040517f08c379a0000000000000000000000000000000000000000000000000000000008152600401610f439061506b565b60405180910390fd5b8060028190555050565b60005481565b600b60009054906101000a900473ffffffffffffffffffffffffffffffffffffffff1681565b60025481565b806000548110610fcd576040517f08c379a0000000000000000000000000000000000000000000000000000000008152600401610fc4906150d7565b60405180910390fd5b600660003373ffffffffffffffffffffffffffffffffffffffff1673ffffffffffffffffffffffffffffffffffffffff16815260200190815260200160002060009054906101000a900460ff161561105a576040517f08c379a000000000000000000000000000000000000000000000000000000000815260040161105190614890565b60405180910390fd5b60006003600084815260200190815260200160002090508060090160009054906101000a900460ff166110c2576040517f08c379a00000000000000000000000000000000000000000000000000000000081526004016110b990615143565b60405180910390fd5b6000816006015414611109576040517f08c379a0000000000000000000000000000000000000000000000000000000008152600401611100906151af565b60405180910390fd5b80600f0160003373ffffffffffffffffffffffffffffffffffffffff1673ffffffffffffffffffffffffffffffffffffffff16815260200190815260200160002060009054906101000a900460ff1615611198576040517f08c379a000000000000000000000000000000000000000000000000000000000815260040161118f9061521b565b60405180910390fd5b80600401548160050154106111e2576040517f08c379a00000000000000000000000000000000000000000000000000000000081526004016111d990615287565b60405180910390fd5b8060010160009054906101000a900473ffffffffffffffffffffffffffffffffffffffff1673ffffffffffffffffffffffffffffffffffffffff163373ffffffffffffffffffffffffffffffffffffffff1603611274576040517f08c379a000000000000000000000000000000000000000000000000000000000815260040161126b906152f3565b60405180910390fd5b600181600f0160003373ffffffffffffffffffffffffffffffffffffffff1673ffffffffffffffffffffffffffffffffffffffff16815260200190815260200160002060006101000a81548160ff0219169083151502179055508060050160008154809291906112e390614f42565b9190505550600460008481526020019081526020016000206040518060a001604052803373ffffffffffffffffffffffffffffffffffffffff168152602001428152602001600015158152602001600081526020016000815250908060018154018082558091505060019003906000526020600020906005020160009091909190915060008201518160000160006101000a81548173ffffffffffffffffffffffffffffffffffffffff021916908373ffffffffffffffffffffffffffffffffffffffff1602179055506020820151816001015560408201518160020160006101000a81548160ff02191690831515021790555060608201518160030155608082015181600401555050600960003373ffffffffffffffffffffffffffffffffffffffff1673ffffffffffffffffffffffffffffffffffffffff168152602001908152602001600020839080600181540180825580915050600190039060005260206000200160009091909190915055600a60003373ffffffffffffffffffffffffffffffffffffffff1673ffffffffffffffffffffffffffffffffffffffff16815260200190815260200160002060008154809291906114a390614f42565b91905055503373ffffffffffffffffffffffffffffffffffffffff16837fac3f100b4ac8aca05e564c08ba5b14ab441739e4c629d9623f9e976c39b667f9426040516114ef91906140a0565b60405180910390a3505050565b806000548110611541576040517f08c379a0000000000000000000000000000000000000000000000000000000008152600401611538906150d7565b60405180910390fd5b60006003600084815260200190815260200160002090508060010160009054906101000a900473ffffffffffffffffffffffffffffffffffffffff1673ffffffffffffffffffffffffffffffffffffffff163373ffffffffffffffffffffffffffffffffffffffff16146115ea576040517f08c379a00000000000000000000000000000000000000000000000000000000081526004016115e19061535f565b60405180910390fd5b8060090160009054906101000a900460ff1661163b576040517f08c379a000000000000000000000000000000000000000000000000000000000815260040161163290615143565b60405180910390fd5b6000816006015414611682576040517f08c379a0000000000000000000000000000000000000000000000000000000008152600401611679906153cb565b60405180910390fd5b60008160090160006101000a81548160ff0219169083151502179055503373ffffffffffffffffffffffffffffffffffffffff16837fdd8111fc205309485832308299cfd551889cea908398f0052b57f72ad5a1da2c60405160405180910390a3505050565b603281565b66038d7ea4c6800081565b80600054811061173d576040517f08c379a0000000000000000000000000000000000000000000000000000000008152600401611734906150d7565b60405180910390fd5b8160036000828152602001908152602001600020600f0160003373ffffffffffffffffffffffffffffffffffffffff1673ffffffffffffffffffffffffffffffffffffffff16815260200190815260200160002060009054906101000a900460ff166117de576040517f08c379a00000000000000000000000000000000000000000000000000000000081526004016117d590615437565b60405180910390fd5b6000600360008581526020019081526020016000209050600073ffffffffffffffffffffffffffffffffffffffff16600b60009054906101000a900473ffffffffffffffffffffffffffffffffffffffff1673ffffffffffffffffffffffffffffffffffffffff1603611886576040517f08c379a000000000000000000000000000000000000000000000000000000000815260040161187d906154a3565b60405180910390fd5b60006008600086815260200190815260200160002060003373ffffffffffffffffffffffffffffffffffffffff1673ffffffffffffffffffffffffffffffffffffffff16815260200190815260200160002054905060008082146118ea57816118f0565b82600801545b90506000814261190091906154c3565b9050610e10811015611947576040517f08c379a000000000000000000000000000000000000000000000000000000000815260040161193e90615543565b60405180910390fd5b600063bbf81e008286600c015487600201546119639190615563565b61196d9190615563565b61197791906155d4565b9050600081116119bc576040517f08c379a00000000000000000000000000000000000000000000000000000000081526004016119b390615651565b60405180910390fd5b42600860008a815260200190815260200160002060003373ffffffffffffffffffffffffffffffffffffffff1673ffffffffffffffffffffffffffffffffffffffff16815260200190815260200160002081905550600b60009054906101000a900473ffffffffffffffffffffffffffffffffffffffff1673ffffffffffffffffffffffffffffffffffffffff166340c10f1933836040518363ffffffff1660e01b8152600401611a6e929190615671565b600060405180830381600087803b158015611a8857600080fd5b505af1158015611a9c573d6000803e3d6000fd5b505050503373ffffffffffffffffffffffffffffffffffffffff16887f1448cb68839238fd008abe5bad73d996f9849e020313466fa9f3476d98006df283604051611ae791906140a0565b60405180910390a35050505050505050565b60056020528060005260406000206000915054906101000a900473ffffffffffffffffffffffffffffffffffffffff1681565b806000548110611b71576040517f08c379a0000000000000000000000000000000000000000000000000000000008152600401611b68906150d7565b60405180910390fd5b600160009054906101000a900473ffffffffffffffffffffffffffffffffffffffff1673ffffffffffffffffffffffffffffffffffffffff163373ffffffffffffffffffffffffffffffffffffffff1614611c01576040517f08c379a0000000000000000000000000000000000000000000000000000000008152600401611bf890614fff565b60405180910390fd5b600060036000848152602001908152602001600020905060004711611c5b576040517f08c379a0000000000000000000000000000000000000000000000000000000008152600401611c52906156e6565b60405180910390fd5b600047905060008260090160006101000a81548160ff021916908315150217905550600160009054906101000a900473ffffffffffffffffffffffffffffffffffffffff1673ffffffffffffffffffffffffffffffffffffffff166108fc829081150290604051600060405180830381858888f19350505050158015611ce5573d6000803e3d6000fd5b503373ffffffffffffffffffffffffffffffffffffffff16847f18fcb562d23857df60e33824b748cb5c3af4e22375458317e7a33e52a971413f83604051611d2d91906140a0565b60405180910390a350505050565b600160009054906101000a900473ffffffffffffffffffffffffffffffffffffffff1673ffffffffffffffffffffffffffffffffffffffff163373ffffffffffffffffffffffffffffffffffffffff1614611dcb576040517f08c379a0000000000000000000000000000000000000000000000000000000008152600401611dc290614fff565b60405180910390fd5b6000600660008373ffffffffffffffffffffffffffffffffffffffff1673ffffffffffffffffffffffffffffffffffffffff16815260200190815260200160002060006101000a81548160ff02191690831515021790555050565b6000826000548110611e6d576040517f08c379a0000000000000000000000000000000000000000000000000000000008152600401611e64906150d7565b60405180910390fd5b60006003600086815260200190815260200160002090508060090160009054906101000a900460ff168015611ea6575060008160060154145b8015611efe575080600f0160008573ffffffffffffffffffffffffffffffffffffffff1673ffffffffffffffffffffffffffffffffffffffff16815260200190815260200160002060009054906101000a900460ff16155b8015611f11575080600401548160050154105b8015611f675750600660008573ffffffffffffffffffffffffffffffffffffffff1673ffffffffffffffffffffffffffffffffffffffff16815260200190815260200160002060009054906101000a900460ff16155b8015611fc357508060010160009054906101000a900473ffffffffffffffffffffffffffffffffffffffff1673ffffffffffffffffffffffffffffffffffffffff168473ffffffffffffffffffffffffffffffffffffffff1614155b9250505092915050565b60046020528160005260406000208181548110611fe957600080fd5b9060005260206000209060050201600091509150508060000160009054906101000a900473ffffffffffffffffffffffffffffffffffffffff16908060010154908060020160009054906101000a900460ff16908060030154908060040154905085565b806000548110612092576040517f08c379a0000000000000000000000000000000000000000000000000000000008152600401612089906150d7565b60405180910390fd5b60006003600084815260200190815260200160002090508060090160009054906101000a900460ff1680156120d657508060090160019054906101000a900460ff16155b612115576040517f08c379a000000000000000000000000000000000000000000000000000000000815260040161210c90615143565b60405180910390fd5b806003015481600701546121299190615706565b42101561216b576040517f08c379a000000000000000000000000000000000000000000000000000000000815260040161216290615786565b60405180910390fd5b60005b600460008581526020019081526020016000208054905081101561242c5760006004600086815260200190815260200160002082815481106121b3576121b2614ba4565b5b906000526020600020906005020160000160009054906101000a900473ffffffffffffffffffffffffffffffffffffffff1690508260100160008460060154815260200190815260200160002060008273ffffffffffffffffffffffffffffffffffffffff1673ffffffffffffffffffffffffffffffffffffffff16815260200190815260200160002060009054906101000a900460ff1661241e57600760008273ffffffffffffffffffffffffffffffffffffffff1673ffffffffffffffffffffffffffffffffffffffff168152602001908152602001600020600081548092919061229f90614f42565b91905055506004600086815260200190815260200160002082815481106122c9576122c8614ba4565b5b906000526020600020906005020160040160008154809291906122eb90614f42565b91905055506003600760008373ffffffffffffffffffffffffffffffffffffffff1673ffffffffffffffffffffffffffffffffffffffff168152602001908152602001600020541061241d576001600660008373ffffffffffffffffffffffffffffffffffffffff1673ffffffffffffffffffffffffffffffffffffffff16815260200190815260200160002060006101000a81548160ff0219169083151502179055508073ffffffffffffffffffffffffffffffffffffffff167ff2f5dcb091f4d2c9dbd9481195a0713490b6db6f9df5dc695d1195b915769bc1600760008473ffffffffffffffffffffffffffffffffffffffff1673ffffffffffffffffffffffffffffffffffffffff1681526020019081526020016000205460405161241491906140a0565b60405180910390a25b5b50808060010191505061216e565b5042816007018190555080600601600081548092919061244b90614f42565b9190505550827f0666a61c1092f5b86c2cfe6ea1ad0d9a36032c4fb92d285b4e43f662d48f19b4826006015442604051612486929190614f8a565b60405180910390a2505050565b60008260005481106124da576040517f08c379a00000000000000000000000000000000000000000000000000000000081526004016124d1906150d7565b60405180910390fd5b6003600085815260200190815260200160002060100160006003600087815260200190815260200160002060060154815260200190815260200160002060008473ffffffffffffffffffffffffffffffffffffffff1673ffffffffffffffffffffffffffffffffffffffff16815260200190815260200160002060009054906101000a900460ff1691505092915050565b600160009054906101000a900473ffffffffffffffffffffffffffffffffffffffff1673ffffffffffffffffffffffffffffffffffffffff163373ffffffffffffffffffffffffffffffffffffffff16146125fb576040517f08c379a00000000000000000000000000000000000000000000000000000000081526004016125f290614fff565b60405180910390fd5b600073ffffffffffffffffffffffffffffffffffffffff168173ffffffffffffffffffffffffffffffffffffffff160361266a576040517f08c379a0000000000000000000000000000000000000000000000000000000008152600401612661906157f2565b60405180910390fd5b80600b60006101000a81548173ffffffffffffffffffffffffffffffffffffffff021916908373ffffffffffffffffffffffffffffffffffffffff16021790555050565b600160009054906101000a900473ffffffffffffffffffffffffffffffffffffffff1681565b6008602052816000526040600020602052806000526040600020600091509150505481565b6060600960008373ffffffffffffffffffffffffffffffffffffffff1673ffffffffffffffffffffffffffffffffffffffff16815260200190815260200160002080548060200260200160405190810160405280929190818152602001828054801561278457602002820191906000526020600020905b815481526020019060010190808311612770575b50505050509050919050565b60608160005481106127d7576040517f08c379a00000000000000000000000000000000000000000000000000000000081526004016127ce906150d7565b60405180910390fd5b60046000848152602001908152602001600020805480602002602001604051908101604052809291908181526020016000905b828210156128cb57838290600052602060002090600502016040518060a00160405290816000820160009054906101000a900473ffffffffffffffffffffffffffffffffffffffff1673ffffffffffffffffffffffffffffffffffffffff1673ffffffffffffffffffffffffffffffffffffffff168152602001600182015481526020016002820160009054906101000a900460ff16151515158152602001600382015481526020016004820154815250508152602001906001019061280a565b50505050915050919050565b6128df613c69565b816000548110612924576040517f08c379a000000000000000000000000000000000000000000000000000000000815260040161291b906150d7565b60405180910390fd5b6000600360008581526020019081526020016000209050604051806101e00160405280826000015481526020018260010160009054906101000a900473ffffffffffffffffffffffffffffffffffffffff1673ffffffffffffffffffffffffffffffffffffffff168152602001826002015481526020018260030154815260200182600401548152602001826005015481526020018260060154815260200182600701548152602001826008015481526020018260090160009054906101000a900460ff16151581526020018260090160019054906101000a900460ff161515815260200182600b018054612a1890614c6e565b80601f0160208091040260200160405190810160405280929190818152602001828054612a4490614c6e565b8015612a915780601f10612a6657610100808354040283529160200191612a91565b820191906000526020600020905b815481529060010190602001808311612a7457829003601f168201915b5050505050815260200182600c0154815260200182600d0154815260200182600e015481525092505050919050565b6000826000548110612b07576040517f08c379a0000000000000000000000000000000000000000000000000000000008152600401612afe906150d7565b60405180910390fd5b600060036000868152602001908152602001600020905080600f0160008573ffffffffffffffffffffffffffffffffffffffff1673ffffffffffffffffffffffffffffffffffffffff16815260200190815260200160002060009054906101000a900460ff16612b7b576000925050612c2c565b60006008600087815260200190815260200160002060008673ffffffffffffffffffffffffffffffffffffffff1673ffffffffffffffffffffffffffffffffffffffff1681526020019081526020016000205490506000808214612bdf5781612be5565b82600801545b905060008142612bf591906154c3565b905063bbf81e008185600c01548660020154612c119190615563565b612c1b9190615563565b612c2591906155d4565b9550505050505b5092915050565b600080600080600054935060005b600054811015612cd8576003600082815260200190815260200160002060090160009054906101000a900460ff1615612c83578380612c7f90614f42565b9450505b600360008281526020019081526020016000206005015483612ca59190615706565b925060036000828152602001908152602001600020600d015482612cc99190615706565b91508080600101915050612c41565b5090919293565b806000548110612d24576040517f08c379a0000000000000000000000000000000000000000000000000000000008152600401612d1b906150d7565b60405180910390fd5b8160036000828152602001908152602001600020600f0160003373ffffffffffffffffffffffffffffffffffffffff1673ffffffffffffffffffffffffffffffffffffffff16815260200190815260200160002060009054906101000a900460ff16612dc5576040517f08c379a0000000000000000000000000000000000000000000000000000000008152600401612dbc90615437565b60405180910390fd5b600660003373ffffffffffffffffffffffffffffffffffffffff1673ffffffffffffffffffffffffffffffffffffffff16815260200190815260200160002060009054906101000a900460ff1615612e52576040517f08c379a0000000000000000000000000000000000000000000000000000000008152600401612e4990614890565b60405180910390fd5b60006003600085815260200190815260200160002090508060090160009054906101000a900460ff168015612e9657508060090160019054906101000a900460ff16155b612ed5576040517f08c379a0000000000000000000000000000000000000000000000000000000008152600401612ecc9061585e565b60405180910390fd5b80600201543414612f1b576040517f08c379a0000000000000000000000000000000000000000000000000000000008152600401612f12906158ca565b60405180910390fd5b8060100160008260060154815260200190815260200160002060003373ffffffffffffffffffffffffffffffffffffffff1673ffffffffffffffffffffffffffffffffffffffff16815260200190815260200160002060009054906101000a900460ff1615612fbf576040517f08c379a0000000000000000000000000000000000000000000000000000000008152600401612fb690615936565b60405180910390fd5b60018160100160008360060154815260200190815260200160002060003373ffffffffffffffffffffffffffffffffffffffff1673ffffffffffffffffffffffffffffffffffffffff16815260200190815260200160002060006101000a81548160ff021916908315150217905550428160110160008360060154815260200190815260200160002060003373ffffffffffffffffffffffffffffffffffffffff1673ffffffffffffffffffffffffffffffffffffffff168152602001908152602001600020819055503481600d01600082825461309d9190615706565b9250508190555060005b60046000868152602001908152602001600020805490508110156131ad573373ffffffffffffffffffffffffffffffffffffffff1660046000878152602001908152602001600020828154811061310157613100614ba4565b5b906000526020600020906005020160000160009054906101000a900473ffffffffffffffffffffffffffffffffffffffff1673ffffffffffffffffffffffffffffffffffffffff16036131a0573460046000878152602001908152602001600020828154811061317457613173614ba4565b5b906000526020600020906005020160030160008282546131949190615706565b925050819055506131ad565b80806001019150506130a7565b503373ffffffffffffffffffffffffffffffffffffffff16847fd2d33c5340520954ae03d46ba5f056dd7adb35260f86df538a709bed96d89afb3484600601546040516131fb929190614f8a565b60405180910390a36000805b600460008781526020019081526020016000208054905081101561330657600060046000888152602001908152602001600020828154811061324c5761324b614ba4565b5b906000526020600020906005020160000160009054906101000a900473ffffffffffffffffffffffffffffffffffffffff1690508360100160008560060154815260200190815260200160002060008273ffffffffffffffffffffffffffffffffffffffff1673ffffffffffffffffffffffffffffffffffffffff16815260200190815260200160002060009054906101000a900460ff16156132f85782806132f490614f42565b9350505b508080600101915050613207565b5081600501548114801561332d5750816003015482600701546133299190615706565b4210155b1561333c5761333b856137a9565b5b5050505050565b600082600054811061338a576040517f08c379a0000000000000000000000000000000000000000000000000000000008152600401613381906150d7565b60405180910390fd5b60006003600086815260200190815260200160002090508060090160009054906101000a900460ff1680156133ce57508060090160019054906101000a900460ff16155b8015613425575080600f0160008573ffffffffffffffffffffffffffffffffffffffff1673ffffffffffffffffffffffffffffffffffffffff16815260200190815260200160002060009054906101000a900460ff165b801561349257508060100160008260060154815260200190815260200160002060008573ffffffffffffffffffffffffffffffffffffffff1673ffffffffffffffffffffffffffffffffffffffff16815260200190815260200160002060009054906101000a900460ff16155b80156134e85750600660008573ffffffffffffffffffffffffffffffffffffffff1673ffffffffffffffffffffffffffffffffffffffff16815260200190815260200160002060009054906101000a900460ff16155b9250505092915050565b60076020528060005260406000206000915090505481565b6060816000548110613551576040517f08c379a0000000000000000000000000000000000000000000000000000000008152600401613548906150d7565b60405180910390fd5b60036000848152602001908152602001600020600a018054806020026020016040519081016040528092919081815260200182805480156135e757602002820191906000526020600020905b8160009054906101000a900473ffffffffffffffffffffffffffffffffffffffff1673ffffffffffffffffffffffffffffffffffffffff168152602001906001019080831161359d575b5050505050915050919050565b603281565b600a6020528060005260406000206000915090505481565b600160009054906101000a900473ffffffffffffffffffffffffffffffffffffffff1673ffffffffffffffffffffffffffffffffffffffff163373ffffffffffffffffffffffffffffffffffffffff16146136a1576040517f08c379a000000000000000000000000000000000000000000000000000000000815260040161369890614fff565b60405180910390fd5b6001600660008373ffffffffffffffffffffffffffffffffffffffff1673ffffffffffffffffffffffffffffffffffffffff16815260200190815260200160002060006101000a81548160ff0219169083151502179055508073ffffffffffffffffffffffffffffffffffffffff167ff2f5dcb091f4d2c9dbd9481195a0713490b6db6f9df5dc695d1195b915769bc1600760008473ffffffffffffffffffffffffffffffffffffffff1673ffffffffffffffffffffffffffffffffffffffff1681526020019081526020016000205460405161377e91906140a0565b60405180910390a250565b60066020528060005260406000206000915054906101000a900460ff1681565b6000600360008381526020019081526020016000209050806004015481600601541061380a576040517f08c379a0000000000000000000000000000000000000000000000000000000008152600401613801906159a2565b60405180910390fd5b600081600a0182600601548154811061382657613825614ba4565b5b9060005260206000200160009054906101000a900473ffffffffffffffffffffffffffffffffffffffff1690506000826005015483600201546138699190615563565b905060006127106002548361387e9190615563565b61388891906155d4565b90506000818361389891906154c3565b905083600560008760060154815260200190815260200160002060006101000a81548173ffffffffffffffffffffffffffffffffffffffff021916908373ffffffffffffffffffffffffffffffffffffffff1602179055508085600e0160008282546139049190615706565b9250508190555084600601600081548092919061392090614f42565b919050555042856007018190555060005b6004600088815260200190815260200160002080549050811015613a39578473ffffffffffffffffffffffffffffffffffffffff1660046000898152602001908152602001600020828154811061398b5761398a614ba4565b5b906000526020600020906005020160000160009054906101000a900473ffffffffffffffffffffffffffffffffffffffff1673ffffffffffffffffffffffffffffffffffffffff1603613a2c5760016004600089815260200190815260200160002082815481106139ff576139fe614ba4565b5b906000526020600020906005020160020160006101000a81548160ff021916908315150217905550613a39565b8080600101915050613931565b508373ffffffffffffffffffffffffffffffffffffffff166108fc829081150290604051600060405180830381858888f19350505050158015613a80573d6000803e3d6000fd5b506000821115613af457600160009054906101000a900473ffffffffffffffffffffffffffffffffffffffff1673ffffffffffffffffffffffffffffffffffffffff166108fc839081150290604051600060405180830381858888f19350505050158015613af2573d6000803e3d6000fd5b505b8373ffffffffffffffffffffffffffffffffffffffff16867fa66924c8a65f84761475175d1d8db947a42ff99992d9881649ceaec7045fe5818360018960060154613b3f91906154c3565b604051613b4d929190614f8a565b60405180910390a38460040154856006015410613bd75760018560090160016101000a81548160ff02191690831515021790555060008560090160006101000a81548160ff021916908315150217905550857fe6e3f8167a0352c51f4a5dc639deb5c5679ccf396f92c55db62037faa0a2351242604051613bce91906140a0565b60405180910390a25b505050505050565b828054828255906000526020600020908101928215613c58579160200282015b82811115613c575782518260006101000a81548173ffffffffffffffffffffffffffffffffffffffff021916908373ffffffffffffffffffffffffffffffffffffffff16021790555091602001919060010190613bff565b5b509050613c659190613cf9565b5090565b604051806101e0016040528060008152602001600073ffffffffffffffffffffffffffffffffffffffff16815260200160008152602001600081526020016000815260200160008152602001600081526020016000815260200160008152602001600015158152602001600015158152602001606081526020016000815260200160008152602001600081525090565b5b80821115613d12576000816000905550600101613cfa565b5090565b6000604051905090565b600080fd5b600080fd5b6000819050919050565b613d3d81613d2a565b8114613d4857600080fd5b50565b600081359050613d5a81613d34565b92915050565b600080fd5b6000601f19601f8301169050919050565b7f4e487b7100000000000000000000000000000000000000000000000000000000600052604160045260246000fd5b613dae82613d65565b810181811067ffffffffffffffff82111715613dcd57613dcc613d76565b5b80604052505050565b6000613de0613d16565b9050613dec8282613da5565b919050565b600067ffffffffffffffff821115613e0c57613e0b613d76565b5b602082029050602081019050919050565b600080fd5b600073ffffffffffffffffffffffffffffffffffffffff82169050919050565b6000613e4d82613e22565b9050919050565b613e5d81613e42565b8114613e6857600080fd5b50565b600081359050613e7a81613e54565b92915050565b6000613e93613e8e84613df1565b613dd6565b90508083825260208201905060208402830185811115613eb657613eb5613e1d565b5b835b81811015613edf5780613ecb8882613e6b565b845260208401935050602081019050613eb8565b5050509392505050565b600082601f830112613efe57613efd613d60565b5b8135613f0e848260208601613e80565b91505092915050565b600080fd5b600067ffffffffffffffff821115613f3757613f36613d76565b5b613f4082613d65565b9050602081019050919050565b82818337600083830152505050565b6000613f6f613f6a84613f1c565b613dd6565b905082815260208101848484011115613f8b57613f8a613f17565b5b613f96848285613f4d565b509392505050565b600082601f830112613fb357613fb2613d60565b5b8135613fc3848260208601613f5c565b91505092915050565b60008060008060008060c08789031215613fe957613fe8613d20565b5b6000613ff789828a01613d4b565b965050602061400889828a01613d4b565b955050604061401989828a01613d4b565b945050606087013567ffffffffffffffff81111561403a57614039613d25565b5b61404689828a01613ee9565b935050608087013567ffffffffffffffff81111561406757614066613d25565b5b61407389828a01613f9e565b92505060a061408489828a01613d4b565b9150509295509295509295565b61409a81613d2a565b82525050565b60006020820190506140b56000830184614091565b92915050565b600080604083850312156140d2576140d1613d20565b5b60006140e085828601613e6b565b92505060206140f185828601613d4b565b9150509250929050565b60006020828403121561411157614110613d20565b5b600061411f84828501613d4b565b91505092915050565b6000819050919050565b600061414d61414861414384613e22565b614128565b613e22565b9050919050565b600061415f82614132565b9050919050565b600061417182614154565b9050919050565b61418181614166565b82525050565b600060208201905061419c6000830184614178565b92915050565b6141ab81613e42565b82525050565b60006020820190506141c660008301846141a2565b92915050565b6000602082840312156141e2576141e1613d20565b5b60006141f084828501613e6b565b91505092915050565b600080604083850312156142105761420f613d20565b5b600061421e85828601613d4b565b925050602061422f85828601613e6b565b9150509250929050565b60008115159050919050565b61424e81614239565b82525050565b60006020820190506142696000830184614245565b92915050565b6000806040838503121561428657614285613d20565b5b600061429485828601613d4b565b92505060206142a585828601613d4b565b9150509250929050565b600060a0820190506142c460008301886141a2565b6142d16020830187614091565b6142de6040830186614245565b6142eb6060830185614091565b6142f86080830184614091565b9695505050505050565b600081519050919050565b600082825260208201905092915050565b6000819050602082019050919050565b61433781613d2a565b82525050565b6000614349838361432e565b60208301905092915050565b6000602082019050919050565b600061436d82614302565b614377818561430d565b93506143828361431e565b8060005b838110156143b357815161439a888261433d565b97506143a583614355565b925050600181019050614386565b5085935050505092915050565b600060208201905081810360008301526143da8184614362565b905092915050565b600081519050919050565b600082825260208201905092915050565b6000819050602082019050919050565b61441781613e42565b82525050565b61442681614239565b82525050565b60a082016000820151614442600085018261440e565b506020820151614455602085018261432e565b506040820151614468604085018261441d565b50606082015161447b606085018261432e565b50608082015161448e608085018261432e565b50505050565b60006144a0838361442c565b60a08301905092915050565b6000602082019050919050565b60006144c4826143e2565b6144ce81856143ed565b93506144d9836143fe565b8060005b8381101561450a5781516144f18882614494565b97506144fc836144ac565b9250506001810190506144dd565b5085935050505092915050565b6000602082019050818103600083015261453181846144b9565b905092915050565b600081519050919050565b600082825260208201905092915050565b60005b83811015614573578082015181840152602081019050614558565b60008484015250505050565b600061458a82614539565b6145948185614544565b93506145a4818560208601614555565b6145ad81613d65565b840191505092915050565b60006101e0830160008301516145d1600086018261432e565b5060208301516145e4602086018261440e565b5060408301516145f7604086018261432e565b50606083015161460a606086018261432e565b50608083015161461d608086018261432e565b5060a083015161463060a086018261432e565b5060c083015161464360c086018261432e565b5060e083015161465660e086018261432e565b5061010083015161466b61010086018261432e565b5061012083015161468061012086018261441d565b5061014083015161469561014086018261441d565b506101608301518482036101608601526146af828261457f565b9150506101808301516146c661018086018261432e565b506101a08301516146db6101a086018261432e565b506101c08301516146f06101c086018261432e565b508091505092915050565b6000602082019050818103600083015261471581846145b8565b905092915050565b60006080820190506147326000830187614091565b61473f6020830186614091565b61474c6040830185614091565b6147596060830184614091565b95945050505050565b600081519050919050565b600082825260208201905092915050565b6000819050602082019050919050565b600061479a838361440e565b60208301905092915050565b6000602082019050919050565b60006147be82614762565b6147c8818561476d565b93506147d38361477e565b8060005b838110156148045781516147eb888261478e565b97506147f6836147a6565b9250506001810190506147d7565b5085935050505092915050565b6000602082019050818103600083015261482b81846147b3565b905092915050565b600082825260208201905092915050565b7f4164647265737320626c61636b6c697374656400000000000000000000000000600082015250565b600061487a601383614833565b915061488582614844565b602082019050919050565b600060208201905081810360008301526148a98161486d565b9050919050565b7f436f6e747269627574696f6e20746f6f206c6f77000000000000000000000000600082015250565b60006148e6601483614833565b91506148f1826148b0565b602082019050919050565b60006020820190508181036000830152614915816148d9565b9050919050565b7f4379636c6520746f6f2073686f72740000000000000000000000000000000000600082015250565b6000614952600f83614833565b915061495d8261491c565b602082019050919050565b6000602082019050818103600083015261498181614945565b9050919050565b7f4379636c6520746f6f206c6f6e67000000000000000000000000000000000000600082015250565b60006149be600e83614833565b91506149c982614988565b602082019050919050565b600060208201905081810360008301526149ed816149b1565b9050919050565b7f496e76616c6964206d656d62657220636f756e74000000000000000000000000600082015250565b6000614a2a601483614833565b9150614a35826149f4565b602082019050919050565b60006020820190508181036000830152614a5981614a1d565b9050919050565b7f5061796f7574206f72646572206d69736d617463680000000000000000000000600082015250565b6000614a96601583614833565b9150614aa182614a60565b602082019050919050565b60006020820190508181036000830152614ac581614a89565b9050919050565b7f41505920746f6f20686967680000000000000000000000000000000000000000600082015250565b6000614b02600c83614833565b9150614b0d82614acc565b602082019050919050565b60006020820190508181036000830152614b3181614af5565b9050919050565b7f506f6f6c20747970652072657175697265640000000000000000000000000000600082015250565b6000614b6e601283614833565b9150614b7982614b38565b602082019050919050565b60006020820190508181036000830152614b9d81614b61565b9050919050565b7f4e487b7100000000000000000000000000000000000000000000000000000000600052603260045260246000fd5b7f496e76616c6964207061796f7574206164647265737300000000000000000000600082015250565b6000614c09601683614833565b9150614c1482614bd3565b602082019050919050565b60006020820190508181036000830152614c3881614bfc565b9050919050565b7f4e487b7100000000000000000000000000000000000000000000000000000000600052602260045260246000fd5b60006002820490506001821680614c8657607f821691505b602082108103614c9957614c98614c3f565b5b50919050565b60008190508160005260206000209050919050565b60006020601f8301049050919050565b600082821b905092915050565b600060088302614d017fffffffffffffffffffffffffffffffffffffffffffffffffffffffffffffffff82614cc4565b614d0b8683614cc4565b95508019841693508086168417925050509392505050565b6000614d3e614d39614d3484613d2a565b614128565b613d2a565b9050919050565b6000819050919050565b614d5883614d23565b614d6c614d6482614d45565b848454614cd1565b825550505050565b600090565b614d81614d74565b614d8c818484614d4f565b505050565b5b81811015614db057614da5600082614d79565b600181019050614d92565b5050565b601f821115614df557614dc681614c9f565b614dcf84614cb4565b81016020851015614dde578190505b614df2614dea85614cb4565b830182614d91565b50505b505050565b600082821c905092915050565b6000614e1860001984600802614dfa565b1980831691505092915050565b6000614e318383614e07565b9150826002028217905092915050565b614e4a82614539565b67ffffffffffffffff811115614e6357614e62613d76565b5b614e6d8254614c6e565b614e78828285614db4565b600060209050601f831160018114614eab5760008415614e99578287015190505b614ea38582614e25565b865550614f0b565b601f198416614eb986614c9f565b60005b82811015614ee157848901518255600182019150602085019450602081019050614ebc565b86831015614efe5784890151614efa601f891682614e07565b8355505b6001600288020188555050505b505050505050565b7f4e487b7100000000000000000000000000000000000000000000000000000000600052601160045260246000fd5b6000614f4d82613d2a565b91507fffffffffffffffffffffffffffffffffffffffffffffffffffffffffffffffff8203614f7f57614f7e614f13565b5b600182019050919050565b6000604082019050614f9f6000830185614091565b614fac6020830184614091565b9392505050565b7f4f6e6c79206f776e657200000000000000000000000000000000000000000000600082015250565b6000614fe9600a83614833565b9150614ff482614fb3565b602082019050919050565b6000602082019050818103600083015261501881614fdc565b9050919050565b7f46656520746f6f20686967680000000000000000000000000000000000000000600082015250565b6000615055600c83614833565b91506150608261501f565b602082019050919050565b6000602082019050818103600083015261508481615048565b9050919050565b7f496e76616c696420706f6f6c2049440000000000000000000000000000000000600082015250565b60006150c1600f83614833565b91506150cc8261508b565b602082019050919050565b600060208201905081810360008301526150f0816150b4565b9050919050565b7f506f6f6c206e6f74206163746976650000000000000000000000000000000000600082015250565b600061512d600f83614833565b9150615138826150f7565b602082019050919050565b6000602082019050818103600083015261515c81615120565b9050919050565b7f506f6f6c20616c72656164792073746172746564000000000000000000000000600082015250565b6000615199601483614833565b91506151a482615163565b602082019050919050565b600060208201905081810360008301526151c88161518c565b9050919050565b7f416c7265616479206a6f696e6564000000000000000000000000000000000000600082015250565b6000615205600e83614833565b9150615210826151cf565b602082019050919050565b60006020820190508181036000830152615234816151f8565b9050919050565b7f506f6f6c2066756c6c0000000000000000000000000000000000000000000000600082015250565b6000615271600983614833565b915061527c8261523b565b602082019050919050565b600060208201905081810360008301526152a081615264565b9050919050565b7f43726561746f72206175746f2d6a6f696e656400000000000000000000000000600082015250565b60006152dd601383614833565b91506152e8826152a7565b602082019050919050565b6000602082019050818103600083015261530c816152d0565b9050919050565b7f4f6e6c792063726561746f720000000000000000000000000000000000000000600082015250565b6000615349600c83614833565b915061535482615313565b602082019050919050565b600060208201905081810360008301526153788161533c565b9050919050565b7f506f6f6c20737461727465640000000000000000000000000000000000000000600082015250565b60006153b5600c83614833565b91506153c08261537f565b602082019050919050565b600060208201905081810360008301526153e4816153a8565b9050919050565b7f4e6f74206120706f6f6c206d656d626572000000000000000000000000000000600082015250565b6000615421601183614833565b915061542c826153eb565b602082019050919050565b6000602082019050818103600083015261545081615414565b9050919050565b7f554c5420746f6b656e206e6f7420736574000000000000000000000000000000600082015250565b600061548d601183614833565b915061549882615457565b602082019050919050565b600060208201905081810360008301526154bc81615480565b9050919050565b60006154ce82613d2a565b91506154d983613d2a565b92508282039050818111156154f1576154f0614f13565b5b92915050565b7f436c61696d20746f6f206672657175656e740000000000000000000000000000600082015250565b600061552d601283614833565b9150615538826154f7565b602082019050919050565b6000602082019050818103600083015261555c81615520565b9050919050565b600061556e82613d2a565b915061557983613d2a565b925082820261558781613d2a565b9150828204841483151761559e5761559d614f13565b5b5092915050565b7f4e487b7100000000000000000000000000000000000000000000000000000000600052601260045260246000fd5b60006155df82613d2a565b91506155ea83613d2a565b9250826155fa576155f96155a5565b5b828204905092915050565b7f4e6f207969656c64206561726e65640000000000000000000000000000000000600082015250565b600061563b600f83614833565b915061564682615605565b602082019050919050565b6000602082019050818103600083015261566a8161562e565b9050919050565b600060408201905061568660008301856141a2565b6156936020830184614091565b9392505050565b7f4e6f2066756e6473000000000000000000000000000000000000000000000000600082015250565b60006156d0600883614833565b91506156db8261569a565b602082019050919050565b600060208201905081810360008301526156ff816156c3565b9050919050565b600061571182613d2a565b915061571c83613d2a565b925082820190508082111561573457615733614f13565b5b92915050565b7f4379636c65206e6f742072656164790000000000000000000000000000000000600082015250565b6000615770600f83614833565b915061577b8261573a565b602082019050919050565b6000602082019050818103600083015261579f81615763565b9050919050565b7f496e76616c696420746f6b656e20616464726573730000000000000000000000600082015250565b60006157dc601583614833565b91506157e7826157a6565b602082019050919050565b6000602082019050818103600083015261580b816157cf565b9050919050565b7f506f6f6c206e6f7420616363657074696e6720636f6e747269627574696f6e73600082015250565b6000615848602083614833565b915061585382615812565b602082019050919050565b600060208201905081810360008301526158778161583b565b9050919050565b7f496e636f727265637420616d6f756e7400000000000000000000000000000000600082015250565b60006158b4601083614833565b91506158bf8261587e565b602082019050919050565b600060208201905081810360008301526158e3816158a7565b9050919050565b7f416c726561647920636f6e747269627574656400000000000000000000000000600082015250565b6000615920601383614833565b915061592b826158ea565b602082019050919050565b6000602082019050818103600083015261594f81615913565b9050919050565b7f416c6c206379636c657320636f6d706c65746564000000000000000000000000600082015250565b600061598c601483614833565b915061599782615956565b602082019050919050565b600060208201905081810360008301526159bb8161597f565b905091905056fea2646970667358221220ac7446d75f816602cdaf234af156dd35b1a11ed285ff9a70757fddbbb239551f64736f6c63430008170033",
  "linkReferences": {},
  "deployedLinkReferences": {}
}